{
  "_format": "hh-sol-artifact-1",
  "contractName": "CryptoBasket",
  "sourceName": "contracts/CryptoBasket.sol",
  "abi": [
    {
      "inputs": [],
      "stateMutability": "nonpayable",
      "type": "constructor"
    },
    {
      "anonymous": false,
      "inputs": [
        {
          "indexed": false,
          "internalType": "address",
          "name": "buyer",
          "type": "address"
        },
        {
          "indexed": false,
          "internalType": "uint256",
          "name": "orderId",
          "type": "uint256"
        },
        {
          "indexed": false,
          "internalType": "uint256",
          "name": "itemId",
          "type": "uint256"
        }
      ],
      "name": "Buy",
      "type": "event"
    },
    {
      "anonymous": false,
      "inputs": [
        {
          "indexed": false,
          "internalType": "string",
          "name": "name",
          "type": "string"
        },
        {
          "indexed": false,
          "internalType": "uint256",
          "name": "cost",
          "type": "uint256"
        },
        {
          "indexed": false,
          "internalType": "uint256",
          "name": "quantity",
          "type": "uint256"
        }
      ],
      "name": "List",
      "type": "event"
    },
    {
      "anonymous": false,
      "inputs": [
        {
          "indexed": false,
          "internalType": "address",
          "name": "owner",
          "type": "address"
        },
        {
          "indexed": false,
          "internalType": "uint256",
          "name": "balance",
          "type": "uint256"
        }
      ],
      "name": "Withdraw",
      "type": "event"
    },
    {
      "inputs": [
        {
          "internalType": "uint256",
          "name": "_id",
          "type": "uint256"
        }
      ],
      "name": "buy",
      "outputs": [],
      "stateMutability": "payable",
      "type": "function"
    },
    {
      "inputs": [
        {
          "internalType": "uint256",
          "name": "",
          "type": "uint256"
        }
      ],
      "name": "items",
      "outputs": [
        {
          "internalType": "uint256",
          "name": "id",
          "type": "uint256"
        },
        {
          "internalType": "string",
          "name": "name",
          "type": "string"
        },
        {
          "internalType": "string",
          "name": "category",
          "type": "string"
        },
        {
          "internalType": "string",
          "name": "image",
          "type": "string"
        },
        {
          "internalType": "uint256",
          "name": "cost",
          "type": "uint256"
        },
        {
          "internalType": "uint256",
          "name": "rating",
          "type": "uint256"
        },
        {
          "internalType": "uint256",
          "name": "stock",
          "type": "uint256"
        }
      ],
      "stateMutability": "view",
      "type": "function"
    },
    {
      "inputs": [
        {
          "internalType": "uint256",
          "name": "_id",
          "type": "uint256"
        },
        {
          "internalType": "string",
          "name": "_name",
          "type": "string"
        },
        {
          "internalType": "string",
          "name": "_category",
          "type": "string"
        },
        {
          "internalType": "string",
          "name": "_image",
          "type": "string"
        },
        {
          "internalType": "uint256",
          "name": "_cost",
          "type": "uint256"
        },
        {
          "internalType": "uint256",
          "name": "_rating",
          "type": "uint256"
        },
        {
          "internalType": "uint256",
          "name": "_stock",
          "type": "uint256"
        }
      ],
      "name": "list",
      "outputs": [],
      "stateMutability": "nonpayable",
      "type": "function"
    },
    {
      "inputs": [
        {
          "internalType": "address",
          "name": "",
          "type": "address"
        }
      ],
      "name": "orderCount",
      "outputs": [
        {
          "internalType": "uint256",
          "name": "",
          "type": "uint256"
        }
      ],
      "stateMutability": "view",
      "type": "function"
    },
    {
      "inputs": [
        {
          "internalType": "address",
          "name": "",
          "type": "address"
        },
        {
          "internalType": "uint256",
          "name": "",
          "type": "uint256"
        }
      ],
      "name": "orders",
      "outputs": [
        {
          "internalType": "uint256",
          "name": "time",
          "type": "uint256"
        },
        {
          "components": [
            {
              "internalType": "uint256",
              "name": "id",
              "type": "uint256"
            },
            {
              "internalType": "string",
              "name": "name",
              "type": "string"
            },
            {
              "internalType": "string",
              "name": "category",
              "type": "string"
            },
            {
              "internalType": "string",
              "name": "image",
              "type": "string"
            },
            {
              "internalType": "uint256",
              "name": "cost",
              "type": "uint256"
            },
            {
              "internalType": "uint256",
              "name": "rating",
              "type": "uint256"
            },
            {
              "internalType": "uint256",
              "name": "stock",
              "type": "uint256"
            }
          ],
          "internalType": "struct CryptoBasket.Item",
          "name": "item",
          "type": "tuple"
        }
      ],
      "stateMutability": "view",
      "type": "function"
    },
    {
      "inputs": [],
      "name": "owner",
      "outputs": [
        {
          "internalType": "address",
          "name": "",
          "type": "address"
        }
      ],
      "stateMutability": "view",
      "type": "function"
    },
    {
      "inputs": [],
      "name": "withdraw",
      "outputs": [],
      "stateMutability": "nonpayable",
      "type": "function"
    }
  ],
  "bytecode": "0x608060405234801561001057600080fd5b50336000806101000a81548173ffffffffffffffffffffffffffffffffffffffff021916908373ffffffffffffffffffffffffffffffffffffffff160217905550611a6e806100606000396000f3fe6080604052600436106100705760003560e01c80638da5cb5b1161004e5780638da5cb5b14610107578063bfb231d214610132578063d96a094a14610175578063eea8a7e81461019157610070565b80633ccfd60b14610075578063713d856b1461008c578063793b8c6d146100c9575b600080fd5b34801561008157600080fd5b5061008a6101ba565b005b34801561009857600080fd5b506100b360048036038101906100ae9190610e5f565b610377565b6040516100c09190610ea5565b60405180910390f35b3480156100d557600080fd5b506100f060048036038101906100eb9190610eec565b61038f565b6040516100fe929190611075565b60405180910390f35b34801561011357600080fd5b5061011c6105a8565b60405161012991906110b4565b60405180910390f35b34801561013e57600080fd5b50610159600480360381019061015491906110cf565b6105cc565b60405161016c9796959493929190611146565b60405180910390f35b61018f600480360381019061018a91906110cf565b6107a6565b005b34801561019d57600080fd5b506101b860048036038101906101b391906112ff565b610c62565b005b60008054906101000a900473ffffffffffffffffffffffffffffffffffffffff1673ffffffffffffffffffffffffffffffffffffffff163373ffffffffffffffffffffffffffffffffffffffff1614610248576040517f08c379a000000000000000000000000000000000000000000000000000000000815260040161023f90611467565b60405180910390fd5b600047905060008060009054906101000a900473ffffffffffffffffffffffffffffffffffffffff1673ffffffffffffffffffffffffffffffffffffffff1682604051610294906114b8565b60006040518083038185875af1925050503d80600081146102d1576040519150601f19603f3d011682016040523d82523d6000602084013e6102d6565b606091505b505090508061031a576040517f08c379a000000000000000000000000000000000000000000000000000000000815260040161031190611519565b60405180910390fd5b7f884edad9ce6fa2440d8a54cc123490eb96d2768479d49ff9c7366125a942436460008054906101000a900473ffffffffffffffffffffffffffffffffffffffff168360405161036b929190611539565b60405180910390a15050565b60026020528060005260406000206000915090505481565b600360205281600052604060002060205280600052604060002060009150915050806000015490806001016040518060e0016040529081600082015481526020016001820180546103df90611591565b80601f016020809104026020016040519081016040528092919081815260200182805461040b90611591565b80156104585780601f1061042d57610100808354040283529160200191610458565b820191906000526020600020905b81548152906001019060200180831161043b57829003601f168201915b5050505050815260200160028201805461047190611591565b80601f016020809104026020016040519081016040528092919081815260200182805461049d90611591565b80156104ea5780601f106104bf576101008083540402835291602001916104ea565b820191906000526020600020905b8154815290600101906020018083116104cd57829003601f168201915b5050505050815260200160038201805461050390611591565b80601f016020809104026020016040519081016040528092919081815260200182805461052f90611591565b801561057c5780601f106105515761010080835404028352916020019161057c565b820191906000526020600020905b81548152906001019060200180831161055f57829003601f168201915b505050505081526020016004820154815260200160058201548152602001600682015481525050905082565b60008054906101000a900473ffffffffffffffffffffffffffffffffffffffff1681565b60016020528060005260406000206000915090508060000154908060010180546105f590611591565b80601f016020809104026020016040519081016040528092919081815260200182805461062190611591565b801561066e5780601f106106435761010080835404028352916020019161066e565b820191906000526020600020905b81548152906001019060200180831161065157829003601f168201915b50505050509080600201805461068390611591565b80601f01602080910402602001604051908101604052809291908181526020018280546106af90611591565b80156106fc5780601f106106d1576101008083540402835291602001916106fc565b820191906000526020600020905b8154815290600101906020018083116106df57829003601f168201915b50505050509080600301805461071190611591565b80601f016020809104026020016040519081016040528092919081815260200182805461073d90611591565b801561078a5780601f1061075f5761010080835404028352916020019161078a565b820191906000526020600020905b81548152906001019060200180831161076d57829003601f168201915b5050505050908060040154908060050154908060060154905087565b6000600160008381526020019081526020016000206040518060e0016040529081600082015481526020016001820180546107e090611591565b80601f016020809104026020016040519081016040528092919081815260200182805461080c90611591565b80156108595780601f1061082e57610100808354040283529160200191610859565b820191906000526020600020905b81548152906001019060200180831161083c57829003601f168201915b5050505050815260200160028201805461087290611591565b80601f016020809104026020016040519081016040528092919081815260200182805461089e90611591565b80156108eb5780601f106108c0576101008083540402835291602001916108eb565b820191906000526020600020905b8154815290600101906020018083116108ce57829003601f168201915b5050505050815260200160038201805461090490611591565b80601f016020809104026020016040519081016040528092919081815260200182805461093090611591565b801561097d5780601f106109525761010080835404028352916020019161097d565b820191906000526020600020905b81548152906001019060200180831161096057829003601f168201915b505050505081526020016004820154815260200160058201548152602001600682015481525050905080608001513410156109ed576040517f08c379a00000000000000000000000000000000000000000000000000000000081526004016109e49061160e565b60405180910390fd5b60008160c0015111610a34576040517f08c379a0000000000000000000000000000000000000000000000000000000008152600401610a2b9061167a565b60405180910390fd5b60006040518060400160405280428152602001838152509050600260003373ffffffffffffffffffffffffffffffffffffffff1673ffffffffffffffffffffffffffffffffffffffff1681526020019081526020016000206000815480929190610a9d906116c9565b919050555080600360003373ffffffffffffffffffffffffffffffffffffffff1673ffffffffffffffffffffffffffffffffffffffff1681526020019081526020016000206000600260003373ffffffffffffffffffffffffffffffffffffffff1673ffffffffffffffffffffffffffffffffffffffff16815260200190815260200160002054815260200190815260200160002060008201518160000155602082015181600101600082015181600001556020820151816001019081610b6491906118bd565b506040820151816002019081610b7a91906118bd565b506060820151816003019081610b9091906118bd565b506080820151816004015560a0820151816005015560c08201518160060155505090505060018260c00151610bc5919061198f565b60016000858152602001908152602001600020600601819055507f1cbc5ab135991bd2b6a4b034a04aa2aa086dac1371cb9b16b8b5e2ed6b036bed33600260003373ffffffffffffffffffffffffffffffffffffffff1673ffffffffffffffffffffffffffffffffffffffff168152602001908152602001600020548460000151604051610c55939291906119c3565b60405180910390a1505050565b60008054906101000a900473ffffffffffffffffffffffffffffffffffffffff1673ffffffffffffffffffffffffffffffffffffffff163373ffffffffffffffffffffffffffffffffffffffff1614610cf0576040517f08c379a0000000000000000000000000000000000000000000000000000000008152600401610ce790611467565b60405180910390fd5b60006040518060e0016040528089815260200188815260200187815260200186815260200185815260200184815260200183815250905080600160008a8152602001908152602001600020600082015181600001556020820151816001019081610d5a91906118bd565b506040820151816002019081610d7091906118bd565b506060820151816003019081610d8691906118bd565b506080820151816004015560a0820151816005015560c082015181600601559050507ffdbe2a012c10ec01592653978eaa09b5ca60b143a0e617505b2ebcbd911ec5b8878584604051610ddb939291906119fa565b60405180910390a15050505050505050565b6000604051905090565b600080fd5b600080fd5b600073ffffffffffffffffffffffffffffffffffffffff82169050919050565b6000610e2c82610e01565b9050919050565b610e3c81610e21565b8114610e4757600080fd5b50565b600081359050610e5981610e33565b92915050565b600060208284031215610e7557610e74610df7565b5b6000610e8384828501610e4a565b91505092915050565b6000819050919050565b610e9f81610e8c565b82525050565b6000602082019050610eba6000830184610e96565b92915050565b610ec981610e8c565b8114610ed457600080fd5b50565b600081359050610ee681610ec0565b92915050565b60008060408385031215610f0357610f02610df7565b5b6000610f1185828601610e4a565b9250506020610f2285828601610ed7565b9150509250929050565b610f3581610e8c565b82525050565b600081519050919050565b600082825260208201905092915050565b60005b83811015610f75578082015181840152602081019050610f5a565b60008484015250505050565b6000601f19601f8301169050919050565b6000610f9d82610f3b565b610fa78185610f46565b9350610fb7818560208601610f57565b610fc081610f81565b840191505092915050565b600060e083016000830151610fe36000860182610f2c565b5060208301518482036020860152610ffb8282610f92565b915050604083015184820360408601526110158282610f92565b9150506060830151848203606086015261102f8282610f92565b91505060808301516110446080860182610f2c565b5060a083015161105760a0860182610f2c565b5060c083015161106a60c0860182610f2c565b508091505092915050565b600060408201905061108a6000830185610e96565b818103602083015261109c8184610fcb565b90509392505050565b6110ae81610e21565b82525050565b60006020820190506110c960008301846110a5565b92915050565b6000602082840312156110e5576110e4610df7565b5b60006110f384828501610ed7565b91505092915050565b600082825260208201905092915050565b600061111882610f3b565b61112281856110fc565b9350611132818560208601610f57565b61113b81610f81565b840191505092915050565b600060e08201905061115b600083018a610e96565b818103602083015261116d818961110d565b90508181036040830152611181818861110d565b90508181036060830152611195818761110d565b90506111a46080830186610e96565b6111b160a0830185610e96565b6111be60c0830184610e96565b98975050505050505050565b600080fd5b600080fd5b7f4e487b7100000000000000000000000000000000000000000000000000000000600052604160045260246000fd5b61120c82610f81565b810181811067ffffffffffffffff8211171561122b5761122a6111d4565b5b80604052505050565b600061123e610ded565b905061124a8282611203565b919050565b600067ffffffffffffffff82111561126a576112696111d4565b5b61127382610f81565b9050602081019050919050565b82818337600083830152505050565b60006112a261129d8461124f565b611234565b9050828152602081018484840111156112be576112bd6111cf565b5b6112c9848285611280565b509392505050565b600082601f8301126112e6576112e56111ca565b5b81356112f684826020860161128f565b91505092915050565b600080600080600080600060e0888a03121561131e5761131d610df7565b5b600061132c8a828b01610ed7565b975050602088013567ffffffffffffffff81111561134d5761134c610dfc565b5b6113598a828b016112d1565b965050604088013567ffffffffffffffff81111561137a57611379610dfc565b5b6113868a828b016112d1565b955050606088013567ffffffffffffffff8111156113a7576113a6610dfc565b5b6113b38a828b016112d1565b94505060806113c48a828b01610ed7565b93505060a06113d58a828b01610ed7565b92505060c06113e68a828b01610ed7565b91505092959891949750929550565b7f4f6e6c7920746865206f776e65722063616e20706572666f726d20746869732060008201527f616374696f6e0000000000000000000000000000000000000000000000000000602082015250565b60006114516026836110fc565b915061145c826113f5565b604082019050919050565b6000602082019050818103600083015261148081611444565b9050919050565b600081905092915050565b50565b60006114a2600083611487565b91506114ad82611492565b600082019050919050565b60006114c382611495565b9150819050919050565b7f5472616e73666572206661696c65640000000000000000000000000000000000600082015250565b6000611503600f836110fc565b915061150e826114cd565b602082019050919050565b60006020820190508181036000830152611532816114f6565b9050919050565b600060408201905061154e60008301856110a5565b61155b6020830184610e96565b9392505050565b7f4e487b7100000000000000000000000000000000000000000000000000000000600052602260045260246000fd5b600060028204905060018216806115a957607f821691505b6020821081036115bc576115bb611562565b5b50919050565b7f4e6f7420656e6f75676820657468657200000000000000000000000000000000600082015250565b60006115f86010836110fc565b9150611603826115c2565b602082019050919050565b60006020820190508181036000830152611627816115eb565b9050919050565b7f4f7574206f662073746f636b0000000000000000000000000000000000000000600082015250565b6000611664600c836110fc565b915061166f8261162e565b602082019050919050565b6000602082019050818103600083015261169381611657565b9050919050565b7f4e487b7100000000000000000000000000000000000000000000000000000000600052601160045260246000fd5b60006116d482610e8c565b91507fffffffffffffffffffffffffffffffffffffffffffffffffffffffffffffffff82036117065761170561169a565b5b600182019050919050565b60008190508160005260206000209050919050565b60006020601f8301049050919050565b600082821b905092915050565b6000600883026117737fffffffffffffffffffffffffffffffffffffffffffffffffffffffffffffffff82611736565b61177d8683611736565b95508019841693508086168417925050509392505050565b6000819050919050565b60006117ba6117b56117b084610e8c565b611795565b610e8c565b9050919050565b6000819050919050565b6117d48361179f565b6117e86117e0826117c1565b848454611743565b825550505050565b600090565b6117fd6117f0565b6118088184846117cb565b505050565b5b8181101561182c576118216000826117f5565b60018101905061180e565b5050565b601f8211156118715761184281611711565b61184b84611726565b8101602085101561185a578190505b61186e61186685611726565b83018261180d565b50505b505050565b600082821c905092915050565b600061189460001984600802611876565b1980831691505092915050565b60006118ad8383611883565b9150826002028217905092915050565b6118c682610f3b565b67ffffffffffffffff8111156118df576118de6111d4565b5b6118e98254611591565b6118f4828285611830565b600060209050601f8311600181146119275760008415611915578287015190505b61191f85826118a1565b865550611987565b601f19841661193586611711565b60005b8281101561195d57848901518255600182019150602085019450602081019050611938565b8683101561197a5784890151611976601f891682611883565b8355505b6001600288020188555050505b505050505050565b600061199a82610e8c565b91506119a583610e8c565b92508282039050818111156119bd576119bc61169a565b5b92915050565b60006060820190506119d860008301866110a5565b6119e56020830185610e96565b6119f26040830184610e96565b949350505050565b60006060820190508181036000830152611a14818661110d565b9050611a236020830185610e96565b611a306040830184610e96565b94935050505056fea264697066735822122068d22542b84854d754fdf498c7a5e39575689a77f7f4bd184183e88473dd7a8164736f6c63430008110033",
  "linkReferences": {},
  "deployedLinkReferences": {}
}